:020000040800F2
:10000000E00E0024790300088D48000889480008A4
:1000100089190090E5050008854B000800000000E4
:10002000000000000000000000000000594B000824
:10003000410C0008000000008F4800085B4B0008DE
:10004000AF030008AF030008AF030008AF030008C8
:10005000AF030008AF030008AF030008AF030008B8
:10006000AF030008AF030008AF030008AF030008A8
:10007000AD060090AF030008AF030008AF0300080F
:10008000AF030008AF030008AF030008AF03000888
:10009000AF030008AF030008AF030008AF03000878
:1000A000AF030008AF030008AF030008AF03000868
:1000B000AF030008AF030008E11E0090AF03000883
:1000C000AF030008AF030008AF030008AF03000848
:1000D000AF030008754B000849320090AF030008D9
:1000E000AF030008AF03000800000000AF030008E2
:1000F000AF030008AF030008AF030008AF03000818
:10010000AF030008AF030008AF030008AF03000807
:10011000654B0008AF030008251F0090AF030008DF
:10012000AF030008AF030008AF030008AF030008E7
:10013000AF030008AF030008AF030008AF030008D7
:1001400000000000000000000000000000000000AF
:10015000AF030008AF030008AF030008AF030008B7
:10016000AF030008AF030008AF030008AF030008A7
:10017000AF030008AF0300089D060090AF0300081E
:10018000AF030008AF030008AF030008AF03000887
:10019000AF030008AF030008AF030008AF03000877
:1001A000AF030008AF030008AF030008AF03000867
:1001B000AF030008AF030008AF030008AF03000857
:1001C000AF030008AF030008AF030008AF03000847
:1001D000AF030008AF030008AF030008AF03000837
:1001E000AF030008AF030008AF030008AF03000827
:1001F000AF030008AF030008AF030008AF03000817
:10020000AF030008AF030008AF030008AF03000806
:10021000AF030008AF030008AF030008AF030008F6
:10022000AF030008AF030008AF03000800000000A0
:10023000AF030008AF03000800000000AF03000890
:10024000AF030008AF030008AF030008AF030008C6
:10025000AF030008AF030008AF030008AF030008B6
:10026000AF030008AF030008AF030008AF030008A6
:10027000AF030008AF030008AF0300080000000050
:10028000AF030008AF030008AF0300080000000040
:1002900000000000AF03000800F002F800F05CF876
:1002A0000AA090E8000C82448344AAF10107DA45D1
:1002B00001D100F051F8AFF2090EBAE80F0013F0C7
:1002C000010F18BFFB1A43F0010318477C500000D0
:1002D0009C5000000A444FF0000C10F8013B13F052
:1002E000070408BF10F8014B1D1108BF10F8015B8F
:1002F000641E05D010F8016B641E01F8016BF9D182
:1003000013F0080F1EBF10F8014BAD1C0C1B09D1D8
:100310006D1E58BF01F801CBFAD505E014F8016B4A
:1003200001F8016B6D1EF9D59142D6D370470000DC
:100330000023002400250026103A28BF78C1FBD8EE
:10034000520728BF30C148BF0B6070471FB504F08B
:10035000E9FF1FBD10B510BD00F0BCF81146FFF756
:10036000F5FF04F087FC00F0DAF803B4FFF7F2FFC2
:1003700003BC04F025FC0000DFF84000016841F4F4
:1003800070010160BFF34F8FDFF83400016821F086
:1003900040410160BFF36F8F0A480047FEE7FEE768
:1003A000FEE7FEE7FEE7FEE7FEE7FEE7FEE7FEE725
:1003B00005480649044A064B7047000088ED00E0F6
:1003C00034EF00E099020008E0060024E00E00246B
:1003D000E0060024704753EA020C00F069802DE922
:1003E000F04B4FF00006002B1FBFB3FA83F503FA62
:1003F00005F424FA05F65E4012BF1643B2FA82F500
:1004000002FA05F4C5F120051EBF22FA05FC44EAF4
:100410000C04203556EA044C4FEA144418BF641CFF
:100420004FF000084FF00009904271EB030C39D3F4
:10043000002919BFB1FA81F701FA07F6B0FA80F77F
:1004400000FA07F6C7F120071EBF20FA07FC46EAAC
:100450000C062037B6FBF4FCA7EB0507103F07F0AE
:100460001F0BCBF120060CFA0BFB2CFA06F644BF4F
:10047000B3460026202FA4BF5E464FF0000B5BEA78
:10048000060C08BF4FF0010B19EB0B09ABFB027C0C
:1004900048EB0608C01B06FB02CC0BFB03CC71EB40
:1004A0000C01C1E70B46024641464846BDE8F08BC9
:1004B00013B54FF000004FF00001AFF30080BDE82E
:1004C0001C4070477047704770477047004870473E
:1004D0007C0600247546FFF7F9FFAE460500694625
:1004E000534620F00700854618B020B5FFF760FF9F
:1004F000BDE820404FF000064FF000074FF0000825
:100500004FF0000B21F00701AC46ACE8C009ACE8A5
:10051000C009ACE8C009ACE8C0098D46704710B509
:100520000446AFF300802046BDE81040FFF71DBF32
:1005300041F21D5CC9F2000C604740F29B3CC9F2DD
:10054000000C604741F2110CC9F2000C604747F6FD
:10055000713CC9F2000C604748F6D11CC9F2000C8E
:10056000604747F6D92CC9F2000C604746F6B54CF7
:10057000C9F2000C604744F2810CC9F2000C6047DC
:1005800041F6E10CC9F2000C604743F6A50CC9F234
:10059000000C604747F6C91CC9F2000C604742F2E4
:1005A000112CC9F2000C604746F6614CC9F2000CF0
:1005B000604748F2BD0CC9F2000C604744F2011CD0
:1005C000C9F2000C604743F2296CC9F2000C604785
:1005D00048F2914CC9F2000C604741F2A54CC9F2B7
:1005E000000C604700BFFEE70146374A08689042AA
:1005F00049D0354A18320868904244D0324A3032E5
:10060000086890423FD0304A4832086890423AD059
:100610002D4A60320868904235D02B4A78320868FB
:10062000904230D0284A9032086890422BD0264A17
:10063000A8320868904226D0244A0868904222D006
:10064000224A1832086890421DD0204A3032086889
:10065000904218D01D4A48320868904213D01B4A75
:100660006032086890420ED0184A7832086890428A
:1006700009D0164A90320868904204D0134AA83232
:100680000868904201D1012000E00020B0B10A7852
:10069000103A1823B2FBF3F000F007020C4B9A5CFF
:1006A000CA65032805D90A686FF30902121D8A6515
:1006B00003E00A686FF309028A6503E0086820F026
:1006C000FF008865886D70471000024010040240EA
:1006D0003E53000810B502682B4C0368A34222D099
:1006E000294C14340368A3421DD0274C28340368D6
:1006F000A34218D0244C3C340368A34213D0224CAC
:1007000050340368A3420ED01F4C64340368A342E4
:1007100009D01D4C78340368A34204D01A4C8C34A1
:100720000368A34201D1012300E000238BB10378C9
:10073000083B1424B3FBF4F1144B03EB8103036671
:10074000124B8033436601F01F040123A3408366EC
:1007500018E00378103B1824B3FBF4F10C4B9A42D9
:1007600004D80B4BA83B9A4200D30831094B03EB4A
:1007700081030366074B8033436601F01F040123A6
:10078000A340836610BD0000085402580058025868
:10079000B8040240000802400179A9B3082940D8F2
:1007A000204B02689A4222D01E4B143302689A42B0
:1007B0001DD01C4B283302689A4218D0194B3C3389
:1007C00002689A4213D0174B503302689A420ED0F7
:1007D000144B643302689A4209D0124B7833026892
:1007E0009A4204D00F4B8C3302689A4201D1012205
:1007F00000E000224AB14A1E0B4B03EB8202C266A4
:10080000094A4032026708E00BE04A1E074B03EB3F
:100810008202C266054A403202674A1E01239340A3
:1008200043677047085402580059025800090240B3
:10083000014600208A69D2B98A6A32B1012A0DD0F4
:10084000022A03D0032A10D10EE000BFCA6A02F0C8
:100850008072B2F1807F00D1012007E0CA6AB2F154
:10086000C07F00D1012001E000E000BF36E08A69CE
:10087000B2F5005F1BD18A6A32B1012A07D0022A81
:1008800003D0032A11D10AE000BF01200EE0CA6A9A
:1008900002F08072B2F1807F00D1012006E0CA6AC6
:1008A000B2F1C07F00D1012000E000BF16E08A6AEB
:1008B00032B1012A05D0022A04D0032A0CD103E068
:1008C00000BF00BF012008E0CA6A02F08072B2F1E6
:1008D000807F00D1012000E000BF00BF7047000012
:1008E00030B5384D0468AC4249D0364D18350468EF
:1008F000AC4244D0334D30350468AC423FD0314D2A
:1009000048350468AC423AD02E4D60350468AC429C
:1009100035D02C4D78350468AC4230D0294D903517
:100920000468AC422BD0274DA8350468AC4226D0D1
:10093000254D0468AC4222D0234D18350468AC42E2
:100940001DD0214D30350468AC4218D01E4D4835BD
:100950000468AC4213D01C4D60350468AC420ED024
:10096000194D78350468AC4209D0174D90350468AC
:10097000AC4204D0144DA8350468AC4201D1012426
:1009800000E0002474B1046863608468402C04D1E2
:100990000468A2600468E16012E00468A160046871
:1009A000E2600DE0046863608468402C04D1046850
:1009B000A2600468E16003E00468A1600468E2608A
:1009C00030BD00001000024010040240F0B5856DFB
:1009D000846D984F0668BE4270D0964F18370668EF
:1009E000BE426BD0934F30370668BE4266D0914FFF
:1009F00048370668BE4261D08E4F60370668BE42F7
:100A00005CD08C4F78370668BE4257D0894F9037FC
:100A10000668BE4252D0874FA8370668BE424DD006
:100A2000854F0668BE4249D0834F18370668BE42DC
:100A300044D0814F30370668BE423FD07E4F4837A2
:100A40000668BE423AD07C4F60370668BE4235D059
:100A5000794F78370668BE4230D0774F90370668B6
:100A6000BE422BD0744FA8370668BE4226D0734FC3
:100A70000668BE4222D0714F14370668BE421DD0B0
:100A80006E4F28370668BE4218D06C4F3C37066858
:100A9000BE4213D0694F50370668BE420ED0674F32
:100AA00064370668BE4209D0644F78370668BE4294
:100AB00004D0624F8C370668BE4201D1012600E0A7
:100AC00000263EB1D0E919767E60C66E16B1D0E937
:100AD0001C767E60574F0668BE4249D0554F183786
:100AE0000668BE4244D0534F30370668BE423FD0FE
:100AF000504F48370668BE423AD04E4F60370668BE
:100B0000BE4235D04B4F78370668BE4230D0494F91
:100B100090370668BE422BD0464FA8370668BE42C3
:100B200026D0454F0668BE4222D0434F183706688C
:100B3000BE421DD0404F30370668BE4218D03E4FEF
:100B400048370668BE4213D03B4F60370668BE4246
:100B50000ED0394F78370668BE4209D0364F9037ED
:100B60000668BE4204D0344FA8370668BE4201D1A1
:100B7000012600E00026DEB190F85C6006F01F0759
:100B80003F26BE40AE600668366826F480260768B9
:100B90003E60066873608668402E04D10668B260C5
:100BA0000668F16044E00668B1600668F2603FE004
:100BB000224F0668BE4222D0204F14370668BE423C
:100BC0001DD01E4F28370668BE4218D01B4F3C3739
:100BD0000668BE4213D0194F50370668BE420ED089
:100BE000164F64370668BE4209D0144F783706683E
:100BF000BE4204D0114F8C370668BE4201D1012697
:100C000000E00026A6B190F85C6006F01F07012600
:100C1000BE406660066873608668402E04D1066830
:100C2000B2600668F16003E00668B1600668F260D1
:100C3000F0BD0000100002401004024008540258A9
:100C4000704700002DE9F04704460F4690461E46C7
:100C5000DDF820904FF0000AA068802804D1400001
:100C600060654FF0010A75E100BF94F83400012877
:100C700002D10220BDE8F087012084F8340000BFD3
:100C800094F8350001287DD1022084F83500002039
:100C90006065B1492068884249D0AF491831206861
:100CA000884244D0AC493031206888423FD0AA49BC
:100CB0004831206888423AD0A7496031206888428C
:100CC00035D0A54978312068884230D0A24990318A
:100CD000206888422BD0A049A8312068884226D0BD
:100CE0009E492068884222D09C4918312068884259
:100CF0001DD09A4930312068884218D09749483130
:100D00002068884213D095496031206888420ED00F
:100D1000924978312068884209D090499031206802
:100D2000884204D08D49A8312068884201D1012031
:100D300000E0002090B12068006840F48020216825
:100D4000086020680661A06D00F1080594F85C0059
:100D500000F01F013F208840286011E020680068F3
:100D600048F2200108432168086020680661A06DF0
:100D7000051D94F85C0000F01F01012088402860E8
:100D8000754900E0E1E02068884270D0724918316E
:100D9000206888426BD0704930312068884266D024
:100DA0006D4948312068884261D06B4960312068C4
:100DB00088425CD0684978312068884257D06649BB
:100DC00090312068884252D06349A8312068884217
:100DD0004DD062492068884249D060491831206866
:100DE000884244D05D493031206888423FD05B4919
:100DF0004831206888423AD058496031206888429A
:100E000035D0564978312068884230D053499031E6
:100E1000206888422BD05149A8312068884226D0CA
:100E20004F492068884222D04D49143120688842B9
:100E30001DD04B4928312068884218D048493C31A0
:100E40002068884213D046495031206888420ED02D
:100E5000434964312068884209D04149783120688B
:100E6000884204D03E498C312068884201D101205B
:100E700000E0002068B14B46424639462046FFF765
:100E80002FFDD4E919104860E06E10B1D4E91C10B0
:100E9000486031492068884249D02F49183120687C
:100EA000884244D02C493031206888423FD02A49BA
:100EB0004831206888423AD027496031206888420A
:100EC00035D0254978312068884230D02249903188
:100ED000206888422BD02049A8312068884226D03B
:100EE0001E492068884222D01C4918312068884257
:100EF0001DD01A4930312068884218D0174948312E
:100F00002068884213D015496031206888420ED08D
:100F1000124978312068884209D010499031206800
:100F2000884204D00D49A8312068884206D1206843
:100F3000006840F00100216808600BE0206800684C
:100F400040F001002168086004E04FF40060606533
:100F50004FF0010A50468DE6100002401004024096
:100F6000085402582DE9F041044601F01DFA80466C
:100F700014B90120BDE8F08194F83500022808D0AA
:100F80008020606500BF002084F8340000BF01208D
:100F9000F0E7FE492068884249D0FC4918312068B2
:100FA000884244D0F9493031206888423FD0F7491F
:100FB0004831206888423AD0F4496031206888423C
:100FC00035D0F24978312068884230D0EF499031ED
:100FD000206888422BD0ED49A8312068884226D06D
:100FE000EB492068884222D0E949183120688842BC
:100FF0001DD0E74930312068884218D0E449483193
:101000002068884213D0E2496031206888420ED0BF
:10101000DF4978312068884209D0DD499031206865
:10102000884204D0DA49A8312068884201D10120E1
:1010300000E0002068B12068006820F01E002168F0
:1010400008602068406920F08000216848612568B8
:1010500006E02068006820F00E002168086025681E
:10106000CA492068884270D0C8491831206888422F
:101070006BD0C64930312068884266D0C3494831B8
:101080002068884261D0C1496031206888425CD0C4
:10109000BE4978312068884257D0BC4990312068D9
:1010A000884252D0B949A831206888424DD0B84909
:1010B0002068884249D0B64918312068884244D017
:1010C000B3493031206888423FD0B1494831206867
:1010D00088423AD0AE4960312068884235D0AC4968
:1010E00078312068884230D0A94990312068884200
:1010F0002BD0A749A8312068884226D0A54920686E
:10110000884222D0A3491431206888421DD0A149C9
:1011100028312068884218D09E493C312068884296
:1011200013D09C495031206888420ED099496431CF
:101130002068884209D0974978312068884204D0D5
:1011400094498C312068884201D1012000E00020C0
:1011500028B1206E006820F48070216E08608B49F1
:101160002068884249D0894918312068884244D093
:1011700086493031206888423FD084494831206810
:1011800088423AD0814960312068884235D07F4911
:1011900078312068884230D07C499031206888427C
:1011A0002BD07A49A8312068884226D07849206817
:1011B000884222D076491831206888421DD074496F
:1011C00030312068884218D07149483120688842FF
:1011D00013D06F496031206888420ED06C49783155
:1011E0002068884209D06A4990312068884204D03A
:1011F0006749A8312068884206D12068006820F03D
:1012000001002168086005E02068006820F0010006
:101210002168086011E001F0C7F8A0EB080005287C
:101220000BD920206065032084F8350000BF002022
:1012300084F8340000BF01209CE6286800F001001B
:101240000028E8D151492068884249D04F491831D7
:101250002068884244D04D493031206888423FD0D0
:101260004A494831206888423AD04849603120686C
:10127000884235D0454978312068884230D043498A
:101280009031206888422BD04049A831206888429C
:1012900026D03F492068884222D03D491831206835
:1012A00088421DD03A4930312068884218D03849E8
:1012B00048312068884213D035496031206888421F
:1012C0000ED0334978312068884209D030499031B6
:1012D0002068884204D02E49A8312068884201D174
:1012E000012000E0002040B1A66D94F85C0000F001
:1012F0001F013F208840B06007E0A76D94F85C00B4
:1013000000F01F0101208840786020492068884251
:1013100076D01E4918312068884271D01B4930317F
:10132000206888426CD0194948312068884267D0CB
:10133000164960312068884262D0144978312068AB
:1013400088425DD0114990312068884258D00F49B9
:10135000A8312068884253D00D49206888424FD078
:101360000B491831206888424AD009493031206839
:10137000884245D0064948312068884240D0044917
:101380006031206888423BD0014905E010000240EE
:1013900010040240085402587831206888422FD047
:1013A0002549206888422BD023491831206888427B
:1013B00026D022492068884222D020491431206852
:1013C00088421DD01D4928312068884218D01B4909
:1013D0003C312068884213D0184950312068884237
:1013E0000ED0164964312068884209D013497831FB
:1013F0002068884204D011498C312068884201D18C
:10140000012000E0002068B1D4E919104860E06EC6
:1014100040B1E06E006820F48070E16E0860D4E9AD
:101420001C104860012084F8350000BF002084F8BB
:10143000340000BF00BF9DE5A004024008540258DC
:1014400070B504460CB9012070BD94F8350002282F
:1014500003D0802060650120F6E7DC4920688842DF
:1014600049D0DA4918312068884244D0D749303110
:10147000206888423FD0D5494831206888423AD018
:10148000D24960312068884235D0D049783120680F
:10149000884230D0CD499031206888422BD0CB494A
:1014A000A8312068884226D0C9492068884222D0C5
:1014B000C7491831206888421DD0C549303120689D
:1014C000884218D0C24948312068884213D0C049A8
:1014D0006031206888420ED0BD497831206888424A
:1014E00009D0BB4990312068884204D0B849A8315E
:1014F0002068884201D1012000E00020F0B30420E0
:1015000084F83500B149206888424BD0AF49183182
:101510002068884246D0AD4930312068884241D0A9
:10152000AA494831206888423CD0A84960312068E7
:10153000884237D0A54978312068884232D0A34903
:101540009031206888422DD0A049A8312068884277
:1015500028D09F492068884224D09D4918312068AE
:1015600088421FD09A493031206888421AD0984961
:1015700048312068884215D0954900E020E060316C
:10158000206888420ED0924978312068884209D07C
:101590008F4990312068884204D08D49A831206855
:1015A000884206D12068006820F0010021680860A8
:1015B00009E12068006820F001002168086002E16C
:1015C0002068006820F00E00216808607F492068CC
:1015D000884249D07D4918312068884244D07B49EF
:1015E0003031206888423FD07849483120688842AD
:1015F0003AD0764960312068884235D073497831D5
:101600002068884230D071499031206888422BD0C0
:101610006E49A8312068884226D06D4920688842EA
:1016200022D06B491831206888421DD0684930317A
:101630002068884218D0664948312068884213D013
:1016400063496031206888420ED061497831206852
:10165000884209D05E4990312068884204D05C49B4
:10166000A8312068884206D12068006820F0010077
:101670002168086005E02068006820F0010021680A
:10168000086052492068884270D05049183120685B
:1016900088426BD04D4930312068884266D04B4932
:1016A00048312068884261D04849603120688842CA
:1016B0005CD0464978312068884257D04349903100
:1016C0002068884252D04149A831206888424DD0D4
:1016D0003F492068884249D03D49183120688842F6
:1016E00044D03B493031206888423FD038494831A6
:1016F000206888423AD0364960312068884235D027
:10170000334978312068884230D03149903120689F
:1017100088422BD02E49A8312068884226D02D49F6
:101720002068884222D02B491431206888421DD07D
:10173000284928312068884218D026493C31206841
:10174000884213D023495031206888420ED0214965
:1017500064312068884209D01E4978312068884267
:1017600004D01C498C312068884201D1012000E05E
:101770000020D8B1206E006820F48070216E0860CF
:10178000A56D94F85C0000F01F010120884068609E
:10179000D4E919104860E06E40B1E06E006820F4B2
:1017A0008070E16E0860D4E91C104860012084F864
:1017B000350000BF002084F8340000BF206D10B158
:1017C0002046216D884700203EE6000010000240C0
:1017D000100402400854025870B504460CB90120A8
:1017E00070BD9B492068884249D0994918312068CA
:1017F000884244D096493031206888423FD094498D
:101800004831206888423AD0914960312068884246
:1018100035D08F4978312068884230D08C4990315A
:10182000206888422BD08A49A8312068884226D077
:1018300088492068884222D0864918312068884229
:101840001DD0844930312068884218D08149483100
:101850002068884213D07F496031206888420ED0CA
:101860007C4978312068884209D07A4990312068D3
:10187000884204D07749A8312068884206D1206880
:10188000006820F001002168086005E02068006819
:1018900020F00100216808606D492068884249D025
:1018A0006B4918312068884244D06949303120683A
:1018B00088423FD066494831206888423AD064491E
:1018C00060312068884235D061497831206888428B
:1018D00030D05F499031206888422BD05C49A831D4
:1018E0002068884226D05B492068884222D0594926
:1018F0001831206888421DD056493031206888420E
:1019000018D0544948312068884213D05149603179
:10191000206888420ED04F4978312068884209D02B
:101920004C4990312068884204D04A49A831206847
:10193000884201D1012000E00020C8B100202168C8
:10194000086021684860216888602168C860216853
:1019500008612120216848612046FEF745FE0646C1
:1019600094F85C0000F01F013F208840B06043E025
:1019700039492068884222D037491431206888428A
:101980001DD0354928312068884218D032493C3171
:101990002068884213D030495031206888420ED0E8
:1019A0002D4964312068884209D02B49783120685C
:1019B000884204D028498C312068884201D1012016
:1019C00000E00020B0B10020216808602168486074
:1019D000216888602168C860216808612046FEF798
:1019E00003FE054694F85C0000F01F0101208840CA
:1019F000686001E00120F3E62046FEF76BFE206EF2
:101A000028B10020216E0860D4E919104860606890
:101A100058B16068082808D82046FEF7BDFE0020AF
:101A2000E16E0860D4E91C1048600020E066206781
:101A30006067E06320646064A064E06420656065C2
:101A400084F8350000BF84F8340000BF00BFC7E64B
:101A50001000024010040240085402582DE9F041E1
:101A6000044600F0A1FC804614B90120BDE8F081D5
:101A7000FE492068884249D0FC49183120688842D4
:101A800044D0FA493031206888423FD0F749483184
:101A9000206888423AD0F54960312068884235D0C4
:101AA000F24978312068884230D0F049903120687E
:101AB00088422BD0ED49A8312068884226D0EC49D5
:101AC0002068884222D0EA491831206888421DD017
:101AD000E74930312068884218D0E549483120680C
:101AE000884213D0E2496031206888420ED0E04934
:101AF00078312068884209D0DD49903120688842D9
:101B000004D0DB49A8312068884201D1012000E0DF
:101B10000020002873D0606A00B100BF022084F862
:101B2000350000BF002084F8340000BFCF49206892
:101B3000884249D0CD4918312068884244D0CB49E9
:101B40003031206888423FD0C849483120688842F7
:101B50003AD0C64960312068884235D0C3497831CF
:101B60002068884230D0C1499031206888422BD00B
:101B7000BE49A8312068884226D0BD4920688842E5
:101B800022D0BB491831206888421DD0B849303175
:101B90002068884218D0B64948312068884213D05E
:101BA000B3496031206888420ED0B149783120684D
:101BB000884209D0AE4990312068884204D0AC49AF
:101BC000A8312068884206D12068006820F0010012
:101BD0002168086005E02068006820F001002168A5
:101BE00008600DE000F0E0FBA0EB0800052807D935
:101BF00020206065032084F83500012036E76AE084
:101C00002068006800F001000028EBD1206805681A
:101C100098480540D4E902010843216908436169F5
:101C20000843A1690843E1690843216A0843054361
:101C3000606A042803D1D4E90B01084305438E48A8
:101C400000686FF30F00B0F1005F1DD360682928B2
:101C500002D360682E2811D960683F2802D36068DB
:101C600042280BD96068472802D36068482805D904
:101C700060684F2804D36068522801D8012000E032
:101C8000002008B145F4801520680560206845698A
:101C900025F00705606A0543606A04280DD1A06A33
:101CA0000543E06A48B12046FEF7C2FD28B1402056
:101CB0006065012084F83500D8E62068456120463B
:101CC000FEF792FC064694F85C0000F01F013F20EE
:101CD0008840B0609EE069492068884222D0674908
:101CE0001431206888421DD0644928312068884218
:101CF00018D062493C312068884213D05F49503186
:101D0000206888420ED05D4964312068884209D03D
:101D10005A4978312068884204D058498C3120686B
:101D2000884201D1012000E00020E0B3534920683F
:101D3000884222D051491431206888421DD04F4931
:101D400028312068884218D04C493C3120688842AC
:101D500013D04A495031206888420ED04749643137
:101D60002068884209D0454978312068884204D0EB
:101D700042498C312068884201D1012000E00020D6
:101D800000B100BF022084F8350000BF002084F8B5
:101D9000340000BF2068056839480540A068402825
:101DA00002D1102106E02EE0A068802801D1C101F7
:101DB00000E00021E06841EAD001206941EAD00159
:101DC000606941EAD001A06941EAD001E06941EAD5
:101DD000D001206A41EA10100543206805602749B8
:101DE0002068401A1421B0FBF1F08000E065204625
:101DF000FEF7FAFB074694F85C0000F01F01012093
:101E00008840786006E040206065032084F8350053
:101E100001202BE61549206888427FD013491831EC
:101E2000206888427AD0114930312068884275D0C4
:101E30000E4948312068884270D00C4960312068D2
:101E400088426BD0094978312068884266D00749BA
:101E500090312068884261D00449A83120688842C6
:101E60005CD003492068884258D00BE01000024043
:101E7000100402403F8010FE0010005C085402581D
:101E80000F00FEFF3B4918312068884246D039498F
:101E900030312068884241D0364948312068884234
:101EA0003CD0344960312068884237D0314978319C
:101EB0002068884232D02F499031206888422DD046
:101EC0002C49A8312068884228D02B4920688842B4
:101ED00024D029491431206888421FD0264928314E
:101EE000206888421AD024493C312068884215D0A5
:101EF000214950312068884210D01F496431206840
:101F000088420BD01C4978312068884206D01A4993
:101F10008C312068884200E000E001D1012000E01F
:101F2000002000B32046FEF7D5FBA068802801D131
:101F3000002060602079216E0860D4E919104860A3
:101F4000606860B16068082809D82046FEF724FC64
:101F50000020E16E0860D4E91C10486003E0002016
:101F6000E0662067606700206065012084F8350026
:101F700000207BE510040240085402582DE9F0418E
:101F800004460D4616461F464FF0000814B90120BE
:101F9000BDE8F08100BF94F83400012801D102208F
:101FA000F6E7012084F8340000BF94F835000128DA
:101FB0007ED1022084F835000020606565492068E4
:101FC000884249D0634918312068884244D0614929
:101FD0003031206888423FD05E49483120688842CD
:101FE0003AD05C4960312068884235D0594978310F
:101FF0002068884230D057499031206888422BD0E1
:102000005449A8312068884226D053492068884224
:1020100022D051491831206888421DD04E493031B4
:102020002068884218D04C4948312068884213D033
:1020300049496031206888420ED04749783120688C
:10204000884209D0444990312068884204D04249EE
:10205000A8312068884206D12068006820F001007D
:102060002168086005E02068006820F00100216810
:1020700008603B46324629462046FEF7A7FC354914
:10208000206888424BD0334918312068884246D0B6
:10209000304930312068884241D02E49483120688B
:1020A00088423CD02B4960312068884237D000E01C
:1020B00043E0284978312068884230D02549903162
:1020C000206888422BD02349A8312068884226D036
:1020D00021492068884222D01F491831206888424F
:1020E0001DD01D4930312068884218D01A49483126
:1020F0002068884213D018496031206888420ED089
:10210000154978312068884209D0134990312068F8
:10211000884204D01049A8312068884206D120683E
:10212000006840F001002168086010E02068006845
:1021300040F001002168086009E04FF4006060652C
:1021400000BF002084F8340000BF4FF00108404673
:102150001EE700001000024010040240034800681F
:1021600040F0010001490860704700002004005859
:10217000F8B502460B4600216F4DD7E001278F408E
:102180001E6806EA0704002C72D01E7906F00306CA
:10219000012E04D01E7906F00306022E13D190689A
:1021A0004F000326BE40B0434F00DE68BE403043C0
:1021B0009060506801268E40B0431E79C6F3001629
:1021C0008E40304350601E7906F00306032E09D07E
:1021D000D0684F000326BE40B0434F009E68BE400B
:1021E0003043D0601E7906F00306022E13D1CF08CB
:1021F00002F1200656F827004E07F70E0F26BE40C4
:10220000B0434F07FF0E1E69BE403043CF0802F1B6
:10221000200646F8270010684F000326BE40B04352
:102220001E7906F003064F00BE40304310605E6822
:1022300006F44036002E78D000BF404E366846F097
:1022400002063E4F3E603E46366806F002060096A5
:1022500000BF00BF3A4E8F0856F827008E07370F91
:102260000F26BE40B043374EB24202D100262EE0C8
:102270005BE0354EB24201D1012628E0334EB24236
:1022800001D1022623E0324EB24201D103261EE0E4
:10229000304EB24201D1042619E02F4EB24201D194
:1022A000052614E02D4EB24201D106260FE02C4E39
:1022B000B24201D107260AE02A4EB24201D10826D5
:1022C00005E0294EB24201D1092600E00A268F0717
:1022D0003F0FBE4030431A4E8F0846F827004FF09C
:1022E000B0463068A0435E6806F4801606B120430D
:1022F0004FF0B04630607068A0435E6806F4001688
:1023000006B120434FF0B04670606868A0435E6835
:1023100006F4003606B1204368602868A0435E6872
:1023200006F4803606B120432860491C1E68CE4062
:10233000002E7FF423AFF8BD80000058F44402580B
:10234000080400580000025800040258000802580F
:10235000000C0258001002580014025800180258CD
:10236000001C02580020025800240258024613693B
:102370000B400BB1012000E00020704710B542690E
:1023800021EA020302EA010443EA0443836110BD27
:102390000AB1816101E00B04836170470148006864
:1023A000000C70470010005C014800687047000096
:1023B0004C00002403480068034909780844014997
:1023C000086070474C0000245400002410B503201E
:1023D00000F00EF901F0FAFB10490968C1F303217E
:1023E0000F4A515C01F01F0120FA01F40B4800680C
:1023F00000F00F001146085C00F01F0024FA00F006
:1024000008490860084804600F2000F00FF808B180
:10241000012010BD00F09AF80020FAE71844025895
:102420002E530008040000240000002470B5044668
:102430001148007808B9012070BD0F4800784FF4AA
:102440007A71B1FBF0F00D490968B1FBF0F528464F
:1024500002F016F908B10120EEE7102C07D2002295
:102460002146501E00F087F80548046001E0012075
:10247000E2E70020E0E70000540000240000002410
:10248000500000244178154A11600178F9B1121DFD
:1024900041681160017B0907C27A41EA0261827AD0
:1024A00041EAC241427B41EA8241827B41EA4241A8
:1024B000C27B41EA0241427A41EA0221027A41EAC0
:1024C000420102781143054A0832116005E00021FB
:1024D000024A121D1160121D1160704798ED00E054
:1024E00000BF00BF00BFBFF35F8F00BF00BF00BFD2
:1024F0000548006820F48030034908600020024944
:10250000703108607047000024ED00E040F00101E8
:102510000D4A11600C497039096841F480310A4A4A
:10252000703A116000BF00BF00BFBFF34F8F00BF04
:1025300000BF00BF00BF00BF00BFBFF36F8F00BF71
:1025400000BF00BF7047000094ED00E070470146F7
:10255000084600280DDB00BF00BF00F01F0301226A
:102560009A4043099B0003F1E023C3F8002100BF18
:1025700000BF00BF70472DE9F05F80460D4616464C
:1025800002F002FB074639462A46334601F00700AF
:10259000C0F1070ABAF1040F02D94FF0040A01E0B2
:1025A000C0F1070AD14600F1040ABAF1070F02D2BE
:1025B0004FF0000A01E0A0F1030AD4464FF0010AEF
:1025C0000AFA09FAAAF1010A0AEA020A0AFA0CFA54
:1025D0004FF0010B0BFA0CFBABF1010B0BEA030BF9
:1025E0004AEA0B042146404602F0D6FABDE8F09FC5
:1025F00000BF00F00702064B19684FF6FF031940B1
:10260000044B0B4343EA0221014B196000BF7047A2
:102610000CED00E00000FA050348006840F080700F
:1026200001490860704700000C48025810B501F0DD
:1026300083FA05490968C1F30211044A515C01F0AB
:102640001F01C84010BD0000204402582E5300084E
:1026500070B50146844D2D6805F00303824D2D6849
:10266000C5F30530804D2D1D2D68C5F300147E4D3A
:1026700014352D68C5F3CC0515FB04F501EE105A91
:10268000B8EE411AF0EE410A00286FD023B1012BB9
:102690004ED0022B6BD16BE0734D283D2D68C5F3F6
:1026A00040153DB3704D283D2D68C5F3C1066F4DF3
:1026B00025FA06F201EE102AF8EE411A01EE100A90
:1026C000B8EE411A81EE812A9FED691AC0EE811A97
:1026D000654D10352D68C5F3080501EE105AB8EEAA
:1026E000411A31EE811AF7EE001A31EE211A22EE6C
:1026F000010A1CE001EE100AB8EE411ADFED5D1A86
:1027000081EE812A9FED5A1AC0EE811A564D10357E
:102710002D68C5F3080501EE105AB8EE411A31EEE6
:10272000811AF7EE001A31EE211A22EE010A5BE05F
:1027300001EE100AB8EE411ADFED4F1A81EE812A40
:102740009FED4B1AC0EE811A474D10352D68C5F329
:10275000080501EE105AB8EE411A31EE811AF7EE73
:10276000001A31EE211A22EE010A3DE077E01DE069
:1027700001EE100AB8EE411A9FED402AC2EE011A8E
:102780009FED3B1A80EE812A374D10352D68C5F339
:10279000080501EE105AB8EE411A32EE011AB7EEF2
:1027A000002A31EE021A21EE810A1DE001EE100A24
:1027B000B8EE411ADFED301A81EE812A9FED2C1A16
:1027C000C0EE811A284D10352D68C5F3080501EEBD
:1027D000105AB8EE411A31EE811AF7EE001A31EEB6
:1027E000211A22EE010A00BF00BF1F4D10352D68CF
:1027F000C5F3462501EE105AB8EE411AF7EE001A5D
:1028000031EE211AC0EE011ABCEEE11A81ED001A78
:10281000154D10352D68C5F3064501EE105AB8EE7A
:10282000411AF7EE001A31EE211AC0EE011ABCEE81
:10283000E11A81ED011A0C4D10352D68C5F30665BE
:1028400001EE105AB8EE411AF7EE001A31EE211AD5
:10285000C0EE011ABCEEE11A81ED021A03E0002578
:102860000D604D608D6070BD284402580090D0030B
:10287000000000460024744C0024744A0024F44AEA
:1028800070B50146844D2D6805F00303824D2D6817
:10289000C5F30550804D2D1D2D68C5F300247E4DD8
:1028A0001C352D68C5F3CC0515FB04F501EE105A57
:1028B000B8EE411AF0EE410A00286FD023B1012B87
:1028C0004ED0022B6BD16BE0734D283D2D68C5F3C4
:1028D00040153DB3704D283D2D68C5F3C1066F4DC1
:1028E00025FA06F201EE102AF8EE411A01EE100A5E
:1028F000B8EE411A81EE812A9FED691AC0EE811A65
:10290000654D18352D68C5F3080501EE105AB8EE6F
:10291000411A31EE811AF7EE001A31EE211A22EE39
:10292000010A1CE001EE100AB8EE411ADFED5D1A53
:1029300081EE812A9FED5A1AC0EE811A564D183544
:102940002D68C5F3080501EE105AB8EE411A31EEB4
:10295000811AF7EE001A31EE211A22EE010A5BE02D
:1029600001EE100AB8EE411ADFED4F1A81EE812A0E
:102970009FED4B1AC0EE811A474D18352D68C5F3EF
:10298000080501EE105AB8EE411A31EE811AF7EE41
:10299000001A31EE211A22EE010A3DE077E01DE037
:1029A00001EE100AB8EE411A9FED402AC2EE011A5C
:1029B0009FED3B1A80EE812A374D18352D68C5F3FF
:1029C000080501EE105AB8EE411A32EE011AB7EEC0
:1029D000002A31EE021A21EE810A1DE001EE100AF2
:1029E000B8EE411ADFED301A81EE812A9FED2C1AE4
:1029F000C0EE811A284D18352D68C5F3080501EE83
:102A0000105AB8EE411A31EE811AF7EE001A31EE83
:102A1000211A22EE010A00BF00BF1F4D18352D6894
:102A2000C5F3462501EE105AB8EE411AF7EE001A2A
:102A300031EE211AC0EE011ABCEEE11A81ED001A46
:102A4000154D18352D68C5F3064501EE105AB8EE40
:102A5000411AF7EE001A31EE211AC0EE011ABCEE4F
:102A6000E11A81ED011A0C4D18352D68C5F3066584
:102A700001EE105AB8EE411AF7EE001A31EE211AA3
:102A8000C0EE011ABCEEE11A81ED021A03E0002546
:102A90000D604D608D6070BD284402580090D003D9
:102AA000000000460024744C0024744A0024F44AB8
:102AB0002DE9F04104460025A8464FF00062D4E914
:102AC000001011400020134659404040014331D1CD
:102AD000A06E48B1B0F5801F0DD0B0F5001F11D029
:102AE000B0F5401F16D114E0F948006840F40030FA
:102AF000F749086010E0022104F1080001F0C8FE67
:102B0000054609E0022104F1280001F073FF0546A3
:102B100002E001E0012500BF00BF55B9EC482430B8
:102B2000006820F44010A16E0843E9492431086090
:102B300000E0A8464FF48073D4E90010194000204B
:102B40005940404001432ED1A06D05281BD2DFE83B
:102B500000F0030A11181900DD48006840F4003045
:102B6000DB49086011E0002104F1080001F090FE4B
:102B700005460AE0002104F1280001F03BFF05466C
:102B800003E002E001E0012500BF00BF55B9D048D5
:102B90002430006820F00700A16D0843CC4924319F
:102BA000086000E0A8464FF40073D4E90010194013
:102BB000002059404040014334D1E06D802818D0B6
:102BC00003DC40B140281DD10CE0C02818D0B0F57E
:102BD000807F17D115E0BE48006840F40030BC4942
:102BE000086011E0002104F1080001F051FE0546E3
:102BF0000AE0002104F1280001F0FCFE054603E094
:102C000002E001E0012500BF00BF55B9B048243003
:102C1000006820F4E070E16D0843AD49243108609C
:102C200000E0A8464FF48063D4E90010194000206A
:102C300059404040014339D1D4F8A800B0F5800F85
:102C40001AD004DC50B1B0F5001F1ED10DE0B0F574
:102C5000C00F18D0B0F5000F17D115E09C480068E0
:102C600040F400309A49086011E0002104F10800A6
:102C700001F00EFE05460AE0002104F1280001F0F3
:102C8000B9FE054603E002E001E0012500BF00BFF8
:102C90005DB98F482C30006820F46000D4F8A8108B
:102CA00008438B492C31086000E0A8464FF40062CD
:102CB000D4E9001011400020134659404040014320
:102CC00039D1D4F8AC00B0F1007F1AD004DC50B197
:102CD000B0F1807F1ED10DE0B0F1407F18D0B0F18F
:102CE000806F17D115E07A48006840F400307849C9
:102CF000086011E0002104F1080001F0C9FD05465B
:102D00000AE0002104F1280001F074FE054603E00A
:102D100002E001E0012500BF00BF5DB96C482C3026
:102D2000006820F0E060D4F8AC10084368492C310A
:102D3000086000E0A8464FF00073D4E90001184095
:102D4000002158404940084328D1E06CA8B1102820
:102D500004D0202809D0302810D10DE05C4800684C
:102D600040F400305A4908600AE0022104F10800EA
:102D700001F08EFD054603E002E001E0012500BF01
:102D800000BF55B952482030006820F03000E16C97
:102D900008434F492031086000E0A8464FF48053B3
:102DA000D4E900101940002059404040014337D178
:102DB000206EB0F5005F1AD004DC50B1B0F5805F32
:102DC0001ED10DE0B0F5405F18D0B0F5804F17D19F
:102DD00015E03F48006840F400303D49086011E0CC
:102DE000002104F1080001F053FD05460AE000212E
:102DF00004F1280001F0FEFD054603E002E001E0D9
:102E0000012500BF00BF55B931482430006820F4C7
:102E1000E040216E08432E492431086000E0A846B6
:102E20004FF40053D4E900101940002059404040AD
:102E3000014335D1606EB0F5403F1ED007DC68B16C
:102E4000B0F5803F0BD0B0F5003F19D10EE0B0F5E2
:102E5000802F13D0B0F5A02F12D110E012E0012185
:102E600004F1080001F014FD05460BE0012104F116
:102E7000280001F0BFFD054604E003E002E001E0A8
:102E8000012500BF00BF55B911482430006820F467
:102E9000E020616E08430E492431086000E0A84636
:102EA0004FF48043D4E900011840002158404940C4
:102EB000084337D1D4F8B000B0F1405F20D009DC2E
:102EC00078B1B0F1805F0DD0B0F1005F1BD110E0A0
:102ED0002C440258B0F1804F13D0B0F1A04F12D162
:102EE00010E012E0012104F1080001F0D1FC0546D8
:102EF0000BE0012104F1280001F07CFD054604E00F
:102F000003E002E001E0012500BF00BF4DB9FE482B
:102F1000006820F0E040D4F8B0100843FA49086097
:102F200000E0A8464FF40042D4E900101140002010
:102F3000134659404040014329D1206FB0B1B0F150
:102F4000805F03D0B0F1005F11D108E0EE482C386B
:102F5000006840F40030EC492C39086009E0012198
:102F600004F1080001F094FC054602E001E00125AF
:102F700000BF00BF55B9E4480838006820F0405051
:102F8000216F0843E0490839086000E0A8464FF087
:102F90008072D4E90010114000201346594040408F
:102FA00001432AD1A06CB8B1012804D002280BD06B
:102FB000032812D10FE0D4482C38006840F40030C8
:102FC000D1492C3908600AE0022104F1080001F01F
:102FD0005FFC054603E002E001E0012500BF00BF01
:102FE00055B9C9480C38006820F00300A16C0843AB
:102FF000C5490C39086000E0A8464FF48002D4E9C6
:1030000000011040002113465840494008437DD13B
:10301000BE48006840F48070BC490860FFF7C4F9FE
:10302000064606E0FFF7C0F9801B642801D9032596
:1030300005E0B648006800F480700028F2D000BFB8
:1030400085BBB1481830006800F44070B4F8B41083
:1030500001F44071884213D0AB481830006820F466
:103060004077A9481830006840F48030A6491831EC
:1030700008600846006820F4803008600846076051
:10308000D4F8B400B0F5807F15D1FFF78DF906466E
:1030900009E0FFF789F9801B41F28831884202D9A3
:1030A000032507E038E0984818300068C0F3400076
:1030B0000028EED000BF55BB00BFB4F8B40000F448
:1030C0004070B0F5407F0ED18F484838006820F43A
:1030D0007C518F4AD4F8B400104041EA10108A495C
:1030E0004839086007E088484838006820F47C5078
:1030F000854948390860844818300068B4F8B4102D
:10310000C1F30B0108438049183101E005E001E0FB
:10311000086002E0A84600E0A8460122D4E90001C8
:1031200010400021134658404940084330D1E06F19
:1031300018281AD005DC48B1082808D0102817D163
:103140000CE0202812D0282812D110E012E0012132
:1031500004F1080001F09CFB05460BE0012104F19D
:10316000280001F047FC054604E003E002E001E02E
:10317000012500BF00BF55B96348001F006820F05B
:103180003800E16F08436049091F086000E0A84665
:103190000222D4E900011040002113465840494062
:1031A000084329D1A06F062816D2DFE800F00304F7
:1031B0000B12131412E0012104F1080001F068FB66
:1031C00005460BE0012104F1280001F013FC05463F
:1031D00004E003E002E001E0012500BF00BF55B9B3
:1031E0004948001F006820F00700A16F08434649C6
:1031F000091F086000E0A8460423D4E90010194024
:10320000002059404040014329D1D4F894000628B9
:1032100016D2DFE800F003040B12131412E00121B0
:1032200004F1080001F034FB05460BE0012104F134
:10323000280001F0DFFB054604E003E002E001E0C6
:10324000012500BF00BF4DB92F48006820F00700DE
:10325000D4F8941008432C49086000E0A8462023C5
:10326000D4E900011840002158404940084337D1B3
:10327000D4F89000B0F1405F1ED007DC68B1B0F127
:10328000805F0BD0B0F1005F19D10EE0B0F1804F3C
:1032900013D0B0F1A04F12D110E012E0002104F1E0
:1032A000080001F0F5FA05460BE0022104F12800C0
:1032B00001F0A0FB054604E003E002E001E0012587
:1032C00000BF00BF5DB91048001F006820F0E0405B
:1032D000D4F8901008430C49091F086000E0A84684
:1032E0004023D4E9001019400020594040400143D8
:1032F0003CD1D4F89C00B0F5406F25D00EDCA0B1D5
:10330000B0F5806F12D005E05844025800480258CA
:10331000FFFCFF0FB0F5006F19D10EE0B0F5805F34
:1033200013D0B0F5A05F12D110E012E0002104F13B
:10333000080001F0ADFA05460BE0022104F1280077
:1033400001F058FB054604E003E002E001E001253E
:1033500000BF00BF4DB9FE48006820F4E050D4F82B
:103360009C100843FA49086000E0A8468023D4E98D
:1033700000101940002059404040014335D1D4F895
:10338000A000B0F5C04F1ED007DC68B1B0F5005FFB
:103390000BD0B0F5804F19D10EE0B0F5004F13D02F
:1033A000B0F5204F12D110E012E0002104F1080026
:1033B00001F06EFA05460BE0022104F1280001F04D
:1033C00019FB054604E003E002E001E0012500BF2F
:1033D00000BF4DB9DE48006820F46040D4F8A0106A
:1033E0000843DB49086000E0A8460823D4E9001040
:1033F0001940002059404040014317D1D4F88400BF
:10340000B0F5805F07D1022104F1280001F0F2FA43
:1034100008B14FF00108CE48001F006820F440506A
:10342000D4F884100843CA49091F08601023D4E95E
:1034300000101940002059404040014315D1D4F8F4
:103440009800B0F5807F07D1022104F1280001F037
:10345000D1FA08B14FF00108BD48006820F440706F
:10346000D4F898100843BA4908604FF40022D4E910
:10347000000110400021134658404940084327D11D
:10348000D4F8A40030B1B0F5803F0AD0B0F5003FC9
:103490000FD10DE0002104F1080001F0F9F9054613
:1034A00009E0022104F1280001F0A4FA054602E037
:1034B00001E0012500BF00BF4DB9A548006820F418
:1034C0004030D4F8A4100843A149086000E0A846A1
:1034D0004FF48023D4E900011840002158404940AE
:1034E00008432DD1D4F88800B0F5801F06D0B0F580
:1034F000001F0CD0B0F5401F11D10FE094482C38BC
:10350000006840F4003092492C39086009E001213C
:1035100004F1280001F06EFA054602E001E0012501
:1035200000BF00BF5DB98A48001F006820F440104A
:10353000D4F8881008438649091F086000E0A846AF
:103540004FF48032D4E90001104000211346584066
:103550004940084325D1206D18B1B0F5803F10D106
:1035600008E07B482C38006840F4003078492C395A
:10357000086008E0022104F1080001F089F905461D
:1035800001E0012500BF00BF55B971480C38006843
:1035900020F48030216D08436D490C39086000E04B
:1035A000A8464FF00052D4E9001011400020134605
:1035B00059404040014307D1022104F1280001F0A5
:1035C00019FA08B14FF001084FF40033D4E90001B3
:1035D0001840002158404940084329D1D4F88000C0
:1035E000A0B1B0F5807F06D0B0F5007F0CD0B0F56B
:1035F000407F0CD109E056482C38006840F4003078
:1036000053492C39086004E003E002E001E00125A1
:1036100000BF00BF5DB94E48001F006820F4407035
:10362000D4F8801008434A49091F086000E0A84602
:103630004FF48012D4E90010114000201346594085
:103640004040014309D142480838006820F000405A
:10365000616F08433E49083908604FF08052D4E951
:1036600000101140002013465940404001430AD148
:1036700037484838006820F48040D4F8B810084330
:103680003349483908604FF40012D4E90010114062
:103690000020134659404040014309D12C480838C6
:1036A000006820F08070E16E0843294908390860FD
:1036B0004FF08042D4E900101140002013465940D9
:1036C0004040014311D100BF21484838006820F430
:1036D00000401F494839086008460068D4F8BC100B
:1036E00008431B494839086000BF4FF00042D4E945
:1036F000001011400020134659404040014309D1B9
:1037000013480C38006820F04050616D08431049A0
:103710000C3908604FF40002D4E900101140002079
:1037200013465940404001430AD10948001F006830
:1037300020F44000D4F88C1008430549091F0860A4
:10374000012300216068184001224940504001E0F7
:1037500058440258014306D104F1080001F098F8DA
:10376000054605B1A8460222002160681040494084
:103770005040014307D1012104F1080001F088F80D
:10378000054605B1A84604230020616819400422BB
:1037900040405140084307D1022104F1080001F0E4
:1037A00077F8054605B1A84608230021606818404F
:1037B000082249405040014306D104F1280001F09D
:1037C00019F9054605B1A84610220021606810408D
:1037D00049405040014307D1012104F1280001F084
:1037E00009F9054605B1A84620220020616811406C
:1037F00040405140084307D1022104F1280001F064
:10380000F9F8054605B1A846B8F1000F02D100202D
:10381000BDE8F0810120FBE72DE9F04104460D46AB
:1038200014B90120BDE8F081BD48006800F00F0028
:10383000A8420ED2BA48006820F00F002843B849C9
:1038400008600846006800F00F00A84201D001207F
:10385000E8E7207800F0040004280ED1B14920697F
:10386000096801F07001884207D9AE48006820F06D
:10387000700021690843AB490860207800F0080017
:10388000082811D1A749091D6069096801F0700174
:10389000884209D9A348001D006820F070006169C2
:1038A0000843A049091D0860207800F01000102886
:1038B00011D19C49091DA069096801F4E0618842A1
:1038C00009D99848001D006820F4E060A169084308
:1038D0009449091D0860207800F02000202811D1AB
:1038E00090490831E069096801F07001884209D9FE
:1038F0008C480830006820F07000E169084389496D
:1039000008310860207800F0020002280ED18549B5
:10391000E068096801F00F01884207D98148006812
:1039200020F00F00E16808437E490860207800F02D
:103930000100002850D07B48006820F47060A16826
:103940000843784908606068022807D1754818382C
:103950000068C0F34040F8B9012063E760680328BD
:1039600007D1704818380068C0F34060A0B9012042
:1039700058E76068012807D16A4818380068C0F322
:10398000002048B901204DE7664818380068C0F3A8
:10399000800008B9012045E762480838006820F037
:1039A0000700616808435F4908390860FEF7FCFCBE
:1039B000064608E0FEF7F8FC801B41F28831884299
:1039C00001D903202EE757480838006800F0380076
:1039D0006168B0EBC10FEDD1207800F00200022841
:1039E0000ED15049E068096801F00F01884207D202
:1039F0004C48006820F00F00E1680843494908601E
:103A00004748006800F00F00A8420ED944480068FB
:103A100020F00F002843424908600846006800F083
:103A20000F00A84201D00120FCE6207800F004003D
:103A300004280ED13B492069096801F070018842D1
:103A400007D23848006820F07000216908433549E2
:103A50000860207800F00800082811D13149091DBC
:103A60006069096801F07001884209D22D48001D83
:103A7000006820F07000616908432A49091D086048
:103A8000207800F01000102811D12649091DA069E6
:103A9000096801F4E061884209D22248001D0068EB
:103AA00020F4E060A16908431E49091D08602078E0
:103AB00000F02000202811D11A490831E069096876
:103AC00001F07001884209D216480830006820F0E1
:103AD0007000E169084313490831086000F076F886
:103AE00010490968C1F303210F4A515C01F01F011D
:103AF00020FA01F70B48006800F00F001146085C3F
:103B000000F01F0027FA00F0084908600848076025
:103B100008480068FEF78AFC8046404682E60000BE
:103B200000200052184402582E53000804000024BC
:103B3000000000245000002410B500F047F80D49A3
:103B40000968C1F303210C4A515C01F01F0120FAFE
:103B500001F40848006800F00F001146085C00F00E
:103B60001F0024FA00F00549086005480460084673
:103B7000006810BD184402582E53000804000024A9
:103B80000000002400B5FFF7D7FF05490968C1F31D
:103B90000211044A515C01F01F01C84000BD000041
:103BA0001C4402582E53000800B5FFF7C5FF054915
:103BB0000968C1F30221044A515C01F01F01C840A9
:103BC00000BD00001C4402582E530008F0B5824E80
:103BD000366806F0380636B1082E15D0102E15D0EE
:103BE000182E7DD114E07C4E103E3668C6F3401688
:103BF00046B1794E103E3668C6F3C107774E26FAB5
:103C000007F000E07548E5E07548E3E07548E1E05D
:103C1000714E1836366806F003046F4E1836366853
:103C2000C6F305116C4E1C36366806F001056A4E67
:103C300024363668C6F3CC0616FB05F601EE106A8C
:103C4000B8EE410A002971D024B1012C50D0022CC9
:103C50006DD16DE0604E103E3668C6F340163EB33F
:103C60005D4E103E3668C6F3C1075C4E26FA07F378
:103C700001EE103AF8EE411A01EE101AB8EE411AB0
:103C800081EE812A9FED581AC0EE011A524E20365D
:103C90003668C6F3080601EE106AB8EE411A31EE36
:103CA000811AF7EE001A31EE211A62EE010A1EE0C7
:103CB00001EE101AB8EE411ADFED4C1A81EE812A9E
:103CC0009FED491AC0EE011A434E20363668C6F3FE
:103CD000080601EE106AB8EE411A31EE811A00E0D2
:103CE00076E0F7EE001A31EE211A62EE010A5BE08F
:103CF00001EE101AB8EE411A9FED3D2AC2EE011AEC
:103D00009FED391A80EE012A334E20363668C6F30D
:103D1000080601EE106AB8EE411A32EE011AB7EE4B
:103D2000002A31EE021A61EE810A3DE04EE01DE00C
:103D300001EE101AB8EE411ADFED2E1A81EE812A3B
:103D40009FED291AC0EE011A234E20363668C6F3BD
:103D5000080601EE106AB8EE411A31EE811AF7EE4C
:103D6000001A31EE211A62EE010A1DE001EE101A6E
:103D7000B8EE411A9FED1E2AC2EE011A9FED1A1AE3
:103D800080EE012A144E20363668C6F3080601EE8E
:103D9000106AB8EE411A32EE011AB7EE002A31EE7F
:103DA000021A61EE810A00BF00BF0B4E2036366852
:103DB000C6F34626721C01EE102AB8EE411AC0EE78
:103DC000811ABCEEE11A11EE100A00E0002001E0B9
:103DD000034800BF00BFF0BD104402580090D0035C
:103DE00000093D0000127A00000000460024744CD7
:103DF0000024744A0024F44A2DE9F047044614B91B
:103E00000120BDE8F087207800F00100002872D082
:103E1000FC48006800F03808FA481830D0F80090E4
:103E2000B8F1100F06D0B8F1180F0FD109F0030048
:103E300002280BD1F34810380068C0F34040002836
:103E40006ED0606800286BD10120DAE700BF60689F
:103E5000B0F5803F08D1EB481038006840F480305E
:103E6000E849103908602EE0606868B9E548103804
:103E7000006820F48030E349103908600846006883
:103E800020F4802008601EE06068B0F5A02F0DD1FE
:103E9000DC481038006840F48020DA4910390860A6
:103EA0000846006840F4803008600CE0D5481038BF
:103EB000006820F48030D349103908600846006853
:103EC00020F48020086000BF6068A8B1FEF76CFA9B
:103ED000054608E0FEF768FA401B41F28831884247
:103EE00001D903208DE7C74810380068C0F340406F
:103EF0000028EFD014E014E0FEF756FA054608E07B
:103F0000FEF752FA401B41F28831884201D9032062
:103F100077E7BC4810380068C0F340400028EFD174
:103F200000BF207800F00200022874D1B548006874
:103F300000F03808B3481830D0F80090B8F1000FFE
:103F400005D0B8F1180F56D109F00300D0BBAD4829
:103F500010380068C0F3800018B1E06808B901208B
:103F60004FE7A8481038006820F01900E1680843BE
:103F7000A44910390860FEF717FA054606E0FEF777
:103F800013FA401B022801D903203AE79D48103854
:103F90000068C0F380000028F1D000BFFEF7FEF9F2
:103FA00041F2030188421AD8206940280BD1954874
:103FB0000C38006820F47C3040F4003091490C3912
:103FC000086017E017E08F480C38006820F47C3058
:103FD000216940EA01308B490C3908600AE08948C0
:103FE0000C38006820F0FE40217C40EA01608549E1
:103FF0000C39086066E0E06888B3824810380068D1
:1040000020F01900E16808437E4910390860FEF786
:10401000CBF9054607E056E0FEF7C6F9401B02283B
:1040200001D90320EDE6774810380068C0F380001E
:104030000028F1D000BFFEF7B1F941F20301884238
:104040001AD8206940280BD16E480C38006820F43B
:104050007C3040F400306B490C39086017E017E001
:1040600068480C38006820F47C30216940EA01304F
:1040700064490C3908600AE062480C38006820F096
:10408000FE40217C40EA01605E490C39086019E07D
:104090005C481038006820F001005A491039086067
:1040A000FEF782F9054606E0FEF77EF9401B02287E
:1040B00001D90320A5E6534810380068C0F38000FA
:1040C0000028F1D100BF207800F0100010287CD12A
:1040D0004C48006800F038084A481830D0F8009082
:1040E000B8F1080F06D0B8F1180F3DD109F0030060
:1040F000012839D1434810380068C0F3002020B1AE
:10410000E069802801D001207BE600BFFEF746F978
:1041100041F2030188421AD8206A20280AD139487E
:104120000C38006820F0F84040F0804035490C39E8
:10413000086018E033480C38006820F0F84094F824
:10414000201040EA81602F490C3908600BE02D48AF
:10415000001F006820F07C5094F8201040EA0160B5
:104160002849091F086066E0E06978B325481038DF
:10417000006840F08000234910390860FEF714F908
:10418000054606E0FEF710F9401B022801D903207E
:1041900037E61C4810380068C0F300200028F1D032
:1041A00000BFFEF7FBF841F2030188421CD8206AE9
:1041B00020280CD113480C38006820F0F84040F05B
:1041C000804010490C3908601AE035E01CE00D48C9
:1041D0000C38006820F0F84094F8201040EA816024
:1041E00008490C3908600BE00648001F006820F001
:1041F0007C5094F8201040EA01600249091F0860D1
:1042000019E0000010440258FA48006820F08000CD
:10421000F8490860FEF7C8F8054606E0FEF7C4F85E
:10422000401B022801D90320EBE5F2480068C0F3E7
:1042300000200028F2D100BF207800F008000828F4
:1042400036D16069D0B1EB487430006840F00100AD
:10425000E84974310860FEF7A7F8054606E0FEF766
:10426000A3F8401B022801D90320CAE5E1487430B5
:104270000068C0F340000028F1D019E0DD48743038
:10428000006820F00100DB4974310860FEF78CF80B
:10429000054606E0FEF788F8401B022801D90320F6
:1042A000AFE5D44874300068C0F340000028F1D175
:1042B000207800F02000202830D1A069B8B1CD4886
:1042C000006840F48050CB490860FEF76DF8054661
:1042D00006E0FEF769F8401B022801D9032090E5AB
:1042E000C4480068C0F340300028F2D016E0C1484E
:1042F000006820F48050BF490860FEF755F8054675
:1043000006E0FEF751F8401B022801D9032078E5AA
:10431000B8480068C0F340300028F2D1207800F09F
:10432000040004287DD1B448006840F48070B2498C
:104330000860FEF739F8054606E0FEF735F8401B41
:10434000642801D903205CE5AB48006800F4807064
:104350000028F2D000BFA068012808D1A54870301D
:10436000006840F00100A349703108602DE0A068AA
:1043700068B9A0487030006820F001009D49703194
:1043800008600846006820F0040008601DE0A0688E
:1043900005280DD197487030006840F00400954919
:1043A000703108600846006840F0010008600CE0C9
:1043B00090487030006820F001008E49703108602C
:1043C0000846006820F00400086000BFA068A0B1A3
:1043D000FDF7EAFF054608E0FDF7E6FF401B41F266
:1043E0008831884201D903200BE58248703000688B
:1043F000C0F340000028EFD013E0FDF7D5FF0546DD
:1044000008E0FDF7D1FF401B41F28831884201D915
:104410000320F6E4774870300068C0F340000028BD
:10442000EFD1606A00287DD072481030006800F03B
:104430003800182877D0606A022875D16D48006866
:1044400020F080706B490860FDF7AEFF054606E07E
:10445000FDF7AAFF401B022801D90320D1E46548DB
:104460000068C0F340600028F2D100BFD4E90A1010
:1044700041EA00105F492831096840F2F332914364
:1044800008435C4928310860208E401EC0F30800B4
:10449000616B491E4FF47E4202EA41210843218F9D
:1044A000491ED20102EA014108433C21095D491E2F
:1044B000120202EA016108434E493031086000BF30
:1044C000081F006820F00100091F086049483430C7
:1044D00000684FF6F8718843A16C40EAC100454975
:1044E0003431086043482C30006820F00C00216C07
:1044F000084340492C3108600846006820F002005B
:10450000616C08433B492C3108600846006840F460
:10451000803008600846006840F4003008600846B3
:10452000006802E093E038E01FE040F4802008607B
:104530000846006840F0010008602E48006840F01E
:1045400080702C490860FDF72FFF054606E0FDF757
:104550002BFF401B022801D9032052E425480068A4
:10456000C0F340600028F2D071E02248006820F0DB
:10457000807020490860FDF717FF054606E0FDF74B
:1045800013FF401B022801D903203AE419480068B0
:10459000C0F340600028F2D159E01648283007687F
:1045A000144830300668606A012821D007F0030102
:1045B000A06A81421CD1C7F30511E06A884217D175
:1045C000C6F30801206B401E814211D1606B401E72
:1045D000C6F3462188420BD1A06B401EC6F30641AC
:1045E000884205D1E06B401EC6F30661884205D0C3
:1045F000012006E4004402580048025815480068AB
:10460000C0F3CC07A06CB84221D01248083800682B
:1046100020F001000F4908390860FDF7C5FE054686
:1046200000BFFDF7C1FE401BFBD00A4800684FF6F3
:10463000F8718843A16C40EAC1000649086005484A
:104640000838006840F0010002490839086000207D
:1046500048E4000034440258042808D14FF0E02117
:10466000096941F004014FF0E022116107E04FF0C9
:10467000E021096921F004014FF0E0221161704747
:1046800070B504462546681EB0F1807F01D3012035
:104690000FE0681E4FF0E02148610F214FF0FF301E
:1046A00000F07AFA00204FF0E021886107200861CD
:1046B000002070BD10B586B004462B4920688842A2
:1046C00050D100BF00BF2948006840F010002749C2
:1046D00008600846006800F01000009000BF00BFAE
:1046E00000BF00BF00BF21481038006840F0010043
:1046F0001E49103908600846006800F0010000906B
:1047000000BF00BF00BF00BF00BF0846006840F008
:10471000010008600846006800F00100009000BF3A
:1047200000BF00BF4FF400700190022002900120F2
:104730000390022004900720059001A90C48FDF782
:1047400017FD4FF4806001900720059001A90848EB
:10475000FDF70EFD2520FDF7FAFE03221146252068
:10476000FDF709FF06B010BD00100140F0440258EB
:104770000000025810B504463849206888423CD1F0
:104780003748008800F4004088BB3548008800F4B2
:10479000804070B1334800780A2803D000203049A7
:1047A000088024E02E48008840F400402C4908800E
:1047B0001DE02C4800780D2806D12948008840F4D7
:1047C00080402749088012E026480078244909885B
:1047D000C1F30D01244A505421480088401C20494F
:1047E000088008460088C72801DD002008800122D3
:1047F0001C491E48FBF79CFE2EE01D49206888429C
:104800002AD11C48007810BB1B4800780A2808D120
:1048100001201849087000201849194A1288885444
:1048200015E0174800887F280ADA134801781448F1
:1048300002880088401C124B18801048815406E002
:1048400000200F49088080210C48FBF776FE0122EA
:1048500009490C48FBF76CFE10BD00000010014038
:10486000480000244A0000245002002418030024B9
:10487000004C00407400002470000024B0050024A7
:10488000720000241C05002400BFFEE7704770473B
:104890002DE9F04104460E4600275548006800F017
:1048A0000300032802D10120BDE8F08150482838D8
:1048B000006820F080604E4928390860FDF774FDDB
:1048C000054606E0FDF770FD401B022801D90320D4
:1048D000EAE7474828380068C0F3C0600028F1D1F3
:1048E00000BF4348006820F47C30216840EA013072
:1048F0003F490860A088401EC0F30800A168491E17
:104900004FF47E4202EA41210843A189491ED201A7
:1049100002EA01410843217C491E120202EA0161B8
:10492000084333491031086000BF3148001D00685A
:1049300020F0C000616908432D49091D0860084640
:10494000006820F02000A16908432949091D08607A
:104950000846006820F01000086025481430006800
:104960004FF6F8718843E16940EAC10020491431EB
:1049700008601F48001D006840F010001C49091D18
:1049800008602EB90846006840F40020086012E074
:10499000012E08D11648001D006840F4801014490B
:1049A000091D086007E01248001D006840F400106F
:1049B0000F49091D08600E482838006840F08060E3
:1049C0000B4928390860FDF7EFFC054606E0FDF7C6
:1049D000EBFC401B022801D9032065E70448283876
:1049E0000068C0F3C0600028F1D038465CE70000E2
:1049F000284402582DE9F04104460E460027554848
:104A0000006800F00300032802D10120BDE8F08116
:104A100050482838006820F080504E4928390860F6
:104A2000FDF7C2FC054606E0FDF7BEFC401B022870
:104A300001D90320EAE7474828380068C0F34070EE
:104A40000028F1D100BF4348006820F07C70218825
:104A500040EA01503F490860A088401EC0F30800AA
:104A6000A168491E4FF47E4202EA41210843A18910
:104A7000491ED20102EA01410843217C491E12026B
:104A800002EA0161084333491831086000BF314828
:104A9000001D006820F44060616908432D49091D2C
:104AA00008600846006820F40070A169084329499D
:104AB000091D08600846006820F4807008602548D9
:104AC0001C3000684FF6F8718843E16940EAC10084
:104AD00020491C3108601F48001D006840F48070A8
:104AE0001C49091D08602EB90846006840F4800082
:104AF000086012E0012E08D11648001D006840F43D
:104B000000001449091D086007E01248001D0068F4
:104B100040F080700F49091D08600E482838006871
:104B200040F080500B4928390860FDF73DFC0546F0
:104B300006E0FDF739FC401B022801D9032065E798
:104B4000044828380068C0F340700028F1D0384687
:104B50005CE7000028440258704710B5FDF72AFCB6
:104B600010BD000010B50248FBF7ECFC10BD0000C2
:104B70001C05002410B50248FBF7E4FC10BD000042
:104B80001803002400BFFEE702480068C0F30220BB
:104B9000704700000CED00E010B5002804DB0A07A8
:104BA000130E054A135406E00A07140E034A00F0D8
:104BB0000F031B1FD45410BD00E400E018ED00E00B
:104BC00000BF704710B504460420FFF745FD0148BB
:104BD000046010BD4000002470B504461E2094FB04
:104BE000F0F594FBF0F100FB114604E047F2305081
:104BF00000F00CF86D1E002DF8D12EB14FF47A7133
:104C000006FB01F000F002F870BD00000146114AF9
:104C100012684A434FF0E0235A6100229A611A4613
:104C2000126942F001021A6100BF4FF0E0221069E0
:104C300000F001021AB100F48032002AF5D04FF0E2
:104C4000E022126922F001024FF0E0231A610022F3
:104C50009A6170474000002400BF054AD26902F003
:104C60004002002AF9D0C2B2014B9A62704700009C
:104C7000001001403EB50025002400F0F5F8FDF7D6
:104C8000A5FB042302221146F02000F079FA4FF42C
:104C9000F070FFF797FF4FF4E13000F027FBFBF7D0
:104CA00056FC4FF41650FBF757FCFBF75AFCFBF78A
:104CB0005DFCFBF760FCFBF763FC45F6BF5142F27D
:104CC0000F70FBF762FC4FF478404FA1102213469F
:104CD000CDE900210290C82232211E20FBF75AFCA8
:104CE0004FF478404AA110221346CDE900210290EA
:104CF000C82246211E20FBF74DFC4FF4784047A107
:104D000010221346CDE900210290C8225A211E200C
:104D1000FBF740FCFBF743FC21E04FF4784043A154
:104D200010221346CDE900210290F02282211E209C
:104D3000FBF730FCC820FFF74FFF4FF6FF70AA23A8
:104D4000EF22822100901E20FBF72EFCC820FFF7E7
:104D500043FF00BF20213948FDF710FB00BFFBF7E0
:104D600028FC0028D9D14FF4784035A110221346F1
:104D7000CDE900210290C82282211E20FBF70AFC07
:104D800035E00020FBF71AFC0546012D03D1002079
:104D90002E4908702CE0022D03D101202B49087008
:104DA00026E0601C84B2642C0CD14FF4784028A11A
:104DB00010221346CDE900210290E62296211E2002
:104DC000FBF7E8FBC82C0FD14FF6FF70A623D222C9
:104DD000962100901E20FBF7E7FB002400BF202156
:104DE0001648FDF7CBFA00BF0520FFF7F5FEC8E730
:104DF00000BF16480078012802D1FBF7E4FB01E070
:104E0000FBF7E6FB00203EBD53544D33320000005B
:104E10004F563536343020544553540041544F4D8D
:104E200040414C49454E54454B0000004F563536E5
:104E30003430204552524F520000000000100258FA
:104E40004F5635363430204F4B0000000800002408
:104E50004B4559303A5247423536352020574B5F43
:104E600055503A4A5045470010B500BF4C480068BD
:104E700000F4003000B139E000BF00BF00BFBFF355
:104E80004F8F00BF00BF00BF00BF00BF00BFBFF318
:104E90006F8F00BF00BF00BF00204249086000BF05
:104EA00000BF00BFBFF34F8F00BF00BF00BF00BFF8
:104EB00000BF00BFBFF36F8F00BF00BF00BF384807
:104EC000006840F400303649086000BF00BF00BFF2
:104ED000BFF34F8F00BF00BF00BF00BF00BF00BFC8
:104EE000BFF36F8F00BF00BF00BF00BF00BF2C4BE0
:104EF0001B6803F4803303B148E00023284C70346E
:104F0000236000BF00BF00BFBFF34F8F00BF00BFD3
:104F100000BF231F1868C0F34E3100BFC0F3C902A1
:104F200000BF43F6E07303EA41134FF0404404EA44
:104F3000827423431B4C1034236000BF00BF131E38
:104F4000A2F10102EDD10B1EA1F10101E6D100BFDA
:104F500000BF00BFBFF34F8F00BF00BF00BF104BAB
:104F60001B6843F480330E4C236000BF00BF00BFBA
:104F7000BFF34F8F00BF00BF00BF00BF00BF00BF27
:104F8000BFF36F8F00BF00BF00BF00BF05484C30AC
:104F9000006840F0040003494C31086010BD000077
:104FA00014ED00E050EF00E030B587B00546002476
:104FB00000BF6A48006840F002006849086008467F
:104FC000006800F00200019000BF00BF00BF08466B
:104FD000006840F0080008600846006800F008001B
:104FE000019000BF00BF00BF0846006840F01000FD
:104FF00008600846006800F01000019000BF00BF84
:1050000000BF56480C38006840F4804053490C39C2
:1050100008600846006800F48040019000BF00BFAF
:10502000402002900220039003200590012004906C
:105030000A20069002A94A48FDF79AF80420029037
:105040000920069002A94648FDF792F84FF46050F7
:1050500002900920069002A94248FDF789F8042031
:1050600002900920069002A93F48FDF781F83B48CD
:105070006438006840F48040384964390860084664
:10508000006820F48040086000BF3848806800F065
:1050900020000028F9D13648344908603548486076
:1050A0000846006840F00100086000BF2F48806893
:1050B00000F020000028F9D14FF483702B4948619B
:1050C00000BF2A48806800F002000028F9D0274875
:1050D000C06840F002002549C86000BF23488068CE
:1050E00000F020000028F9D12049C861EB2444F4E5
:1050F000807444F44064A81C44EA003444F44044FE
:1051000000BF44F4801444F0407444F04064084606
:1051100044611948006820F4803017490860164837
:105120007030006820F001001349703108600020E1
:10513000091D08604FF01040091D08600F48091D47
:10514000086005200C49703108600B48006840F485
:1051500080300949086007B030BD0000E0440258C3
:1051600000040258000C025800100258005000526F
:10517000100300010102180024ED00E02D000303DC
:105180002DE9F041CEB080460D4616461F4600245C
:105190005248006820F004005049086000BF002019
:1051A00001904F48006820F001004D490860084612
:1051B000006800F00100019048480C30006840F49D
:1051C000404046490C3108600846006800F4404001
:1051D000019000BF00BF00BF40480C30006800F4E1
:1051E0000050B0F5005FF7D121203A904FF48030A5
:1051F0003B9000203D904190012040900220439040
:1052000002213AA88162CDF81881C562466387639E
:10521000002141640821016400218164FEF7ECFD56
:1052200004461CB101204EB0BDE8F0813F20329011
:105230000320339000203490082035904020379090
:1052400000013890402036903990042132A8FEF7B2
:10525000E3FA04460CB10120E5E722490020CDE93C
:105260000210082004904FF4DC7105910221069190
:1052700007910891002109910A910B910220149045
:10528000202015900020209021904FF44010249071
:1052900002A8FDF70DFC04460CB10120C3E7002075
:1052A000FFF782FEFDF7B8F90F48006840F0800074
:1052B0000D49086000BF0C48F430006840F002005F
:1052C0000949F43108600846006800F002000190C6
:1052D00000BF00BFFCF742FF0020A4E70C480258C3
:1052E0002C040058030004030044025810B504467F
:1052F00009480A4908600846446000218160C1608D
:10530000016181610C214161FBF767F901220449C8
:105310000248FBF70DF910BD0010014018030024EE
:105320004A0000244FF04070E1EE100A7047000080
:105330000000010203040102030406070809000635
:105340001016000610160000685300080000002424
:1053500050020000D40200084C54000850020024FF
:10536000900C000030030008113C90D00304011F92
:105370001334F91B903C041A44041A14041A200430
:105380001A28040110321033010122F80322FFFF12
:10539000392CB11A4C541A60041A68041A54041AAD
:1053A00070041A50041A58041B8B847812FB149052
:1053B000759C1490CCFA1490D94B1B084410130D13
:1053C0004C1B0860081339831B90F81813897C1450
:1053D00090D8FC1C90617DA01AFD2819081A7C1831
:1053E000130D821B902C081AB5281AA8301AE5282C
:1053F0001A7C081B797ECC19281A1D601A542013B8
:10540000E17F1B90E4701AAB181A081069201A5536
:10541000401AD4301B1D804819601AD5101AA420D8
:105420001A4F381A74301BD138581908131D3D1BF8
:1054300090882022AC142455921C90B18A8C128B37
:0C5440001B90950C1A16F301DC00000014
:0200000490006A
:10000000642900F07F80752900F07C80782900F059
:10001000B580632900F08B82732900F09082002064
:10002000704700000FB4044910B503AA029800F00D
:100030008BFA10BC5DF814FB440000240FB41CB50F
:10004000074B06AA7B4469460090059800F04DFADC
:100050000020694600F05CFA1CBC5DF814FB00004F
:10006000C904000070B5044685690068C10601D561
:10007000302600E02026C00707D070BDD4E901215A
:1000800030469047206A401C20626D1EF6D570BD38
:1000900070B5044685690078C00707D170BDD4E902
:1000A000012120209047206A401C20626D1EF6D559
:1000B00070BD70B50C460546012A05D0287880062B
:1000C00000D5EA69002302E0012305E05B1C9342AE
:1000D00002D2E05C0028F9D1A869E618C01AA8612C
:1000E000286A184428622846FFF7BCFF04E0D5E9D7
:1000F000012114F8010B9047B442F8D32846FFF7CA
:10010000C7FF70BD2DE9F04106460024106875292F
:10011000314616A510D0AFF30080002802DA404225
:1001200013A507E031688A0701D512A502E0490747
:1001300004D511A5012401E0AFF3008000210A22BB
:1001400006F1240709E0B0FBF2FCB0FBF2F302FB7E
:100150001C00303078541846491C0028F3D123463F
:100160002A463046BDE8F04100F060B900000000CA
:100170002D0000002B0000002000000070B5044698
:100180000D4621461068AFF300802188090502D58D
:100190000F4A7A4402E00E4A7A440E32002104F1FA
:1001A000240305E000F00F060009965D5E54491C2B
:1001B0000028F7D120780023000704D5702D02D045
:1001C00009B1022311322046BDE8704000F02EB97B
:1001D00045F700002DE9F05F894604464FF0000A1C
:1001E000DFF874B1FB44C0F820A02046E1688847DE
:1001F000002874D0252806D0D4E901219047206A30
:10020000401C2062F1E700265F462046E1688847EF
:100210002028054607DB312D05D2781910F8200C6F
:1002200008B10643F1E7B00701D526F00406C4F88B
:100230001CA00027C4F818A02A2D09D0284603F0D6
:10024000EBF938B304EB8708303DC8F8185019E0D3
:1002500059F8041B204604EB87029161E168884746
:10026000012F054618D1E069002820DA26F0200683
:100270001DE0D8F8180000EB800005EB4000303896
:10028000C8F818002046E1688847054603F0C4F91D
:100290000028EED1012F0AD02E2D08D12046E1688A
:1002A00088477F1C0546022F46F02006C4DBA06964
:1002B000002803DA404246F00106A061F00701D0B1
:1002C00026F010066C2D0BD0682D09D04C2D39D09E
:1002D0006A2D35D0742D35D07A2D33D016E038E024
:1002E000E1682F4620468847B842054609D16C2F61
:1002F00026D04FF48060E1680643204688470546D3
:1003000004E06C2F1AD04FF4807006430DB3A5F1B2
:100310004100192802D8203546F400664A4629468D
:10032000204626604E46FFF76BFE80B101280BD0B9
:10033000F61D26F0070000F1080956E74020E4E723
:100340008020D8E70020D6E706F104094DE72846CB
:1003500052E7206ABDE8F09F1BF7000010B5431C70
:1003600002E010F8011B71B18107FAD14FF00132A0
:1003700002C88C1A8C4314EAC211F9D0C01A0A06BA
:1003800003D0C01E10BDC01A10BD0A0401D0801ECB
:1003900010BD0902FCD0401E10BD4FF00002042920
:1003A000C0F0128010F0030C00F01B80CCF1040CA4
:1003B000BCF1020F18BF00F8012BA8BF20F8022BD8
:1003C000A1EB0C0100F00DB85FEAC17C24BF00F87E
:1003D000012B00F8012B48BF00F8012B70474FF0AC
:1003E000000200B5134694469646203922BFA0E885
:1003F0000C50A0E80C50B1F12001BFF4F7AF090791
:1004000028BFA0E80C5048BF0CC05DF804EB890081
:1004100028BF40F8042B08BF704748BF20F8022BC4
:1004200011F0804F18BF00F8012B70472DE9F047FD
:100430000D4699469246044600F124080168880654
:1004400004D5E06921F01001216000E00120A842FC
:1004500001DD471B00E00027A1697A1902EB0900C2
:10046000081AA0612078C00602D42046FFF7FAFDE2
:10047000002608E0D4E901211AF806009047206A16
:10048000401C761C20624E45F4DB2078C0060AD55D
:100490002046FFF7E7FD06E0D4E901213020904730
:1004A000206A401C2062381EA7F10107F4DC07E037
:1004B000D4E9012118F805009047206A401C206209
:1004C000281EA5F10105F3DC2046FFF7E1FD2078A9
:1004D000000602D50220BDE8F0870120FBE70000FE
:1004E00001694A1C02610878704700B58FB0CDE9F8
:1004F00001310021059105497944CDE903101146E8
:100500006846FFF767FE0FB000BD0000E5FFFFFF84
:100510000A6802F8010B0A60704710B5436913B10D
:10052000AFF3008001E0FFF7C4FD012010BD127899
:1005300000F124010A7000224A700122EDE71168DF
:100540004FF0FF32E9E70000074B70B50D467B44E2
:10055000FFF7CBFF0446284600F008F810B14FF033
:10056000FF3070BD204670BD07470078007B00F06B
:100570008000704742F27D3CC0F6000C604741F2BB
:10058000414CC0F6000C604742F2711CC0F6000CF2
:10059000604742F2775CC0F6000C604742F24F5C65
:1005A000C0F6000C604740F6657CC0F6000C604762
:1005B00044F2B56CC0F6000C604742F2A93CC0F6AC
:1005C000000C604742F2913CC0F6000C604744F6D4
:1005D000D93CC0F6000C604742F26D3CC0F6000CFE
:1005E000604744F60D4CC0F6000C604744F2757C41
:1005F000C0F6000C604742F22D6CC0F6000C60475C
:1006000042F2516CC0F6000C604742F6810CC0F615
:10061000000C604740F2D73CC0F6000C604743F640
:10062000853CC0F6000C604743F6A93CC0F6000CC0
:10063000604741F2D97CC0F6000C604741F65D2C62
:10064000C0F6000C604741F67D7CC0F6000C6047A8
:1006500040F6454CC0F6000C604742F2E14CC0F653
:10066000000C604742F2854CC0F6000C604742F235
:100670000D5CC0F6000C604770B50546AC6BA06C15
:10068000406D022806D0012084F83500E06C40F06F
